8=FIX.4.2|9=80|35=A|34=1|49=EQUITY-TRADER|52=20140822-06:13:56.555|56=NASDAQ|98=0|108=30|141=Y|10=184|8=FIX.4.2|9=62|35=0|34=2|49=EQUITY-TRADER|52=20140822-06:14:27.185|56=NASDAQ|10=096|8=FIX.4.2|9=62|35=0|34=3|49=EQUITY-TRADER|52=20140822-06:14:57.186|56=NASDAQ|10=101|8=FIX.4.2|9=62|35=0|34=4|49=EQUITY-TRADER|52=20140822-06:15:27.186|56=NASDAQ|10=100|8=FIX.4.2|9=62|35=0|34=5|49=EQUITY-TRADER|52=20140822-06:15:57.186|56=NASDAQ|10=104|8=FIX.4.2|9=62|35=0|34=6|49=EQUITY-TRADER|52=20140822-06:16:27.187|56=NASDAQ|10=104|8=FIX.4.2|9=62|35=0|34=7|49=EQUITY-TRADER|52=20140822-06:16:57.188|56=NASDAQ|10=109|8=FIX.4.2|9=62|35=0|34=8|49=EQUITY-TRADER|52=20140822-06:17:27.189|56=NASDAQ|10=109|8=FIX.4.2|9=62|35=0|34=9|49=EQUITY-TRADER|52=20140822-06:17:57.189|56=NASDAQ|10=113|8=FIX.4.2|9=63|35=0|34=10|49=EQUITY-TRADER|52=20140822-06:18:27.189|56=NASDAQ|10=152|8=FIX.4.2|9=63|35=0|34=11|49=EQUITY-TRADER|52=20140822-06:18:57.190|56=NASDAQ|10=148|8=FIX.4.2|9=63|35=0|34=12|49=EQUITY-TRADER|52=20140822-06:19:27.190|56=NASDAQ|10=147|8=FIX.4.2|9=63|35=0|34=13|49=EQUITY-TRADER|52=20140822-06:19:57.191|56=NASDAQ|10=152|8=FIX.4.2|9=63|35=0|34=14|49=EQUITY-TRADER|52=20140822-06:20:27.192|56=NASDAQ|10=143|8=FIX.4.2|9=63|35=0|34=15|49=EQUITY-TRADER|52=20140822-06:20:57.193|56=NASDAQ|10=148|8=FIX.4.2|9=63|35=0|34=16|49=EQUITY-TRADER|52=20140822-06:21:28.192|56=NASDAQ|10=147|8=FIX.4.2|9=156|35=D|34=17|49=EQUITY-TRADER|52=20140822-06:21:42.138|56=NASDAQ|11=EQUITY-TRADER-1408688502137|21=1|38=200|40=2|44=580|54=1|55=GOOG|60=20140822-06:21:42.137|10=185|8=FIX.4.2|9=63|35=0|34=18|49=EQUITY-TRADER|52=20140822-06:22:12.194|56=NASDAQ|10=145|8=FIX.4.2|9=63|35=0|34=19|49=EQUITY-TRADER|52=20140822-06:22:42.194|56=NASDAQ|10=149|8=FIX.4.2|9=63|35=0|34=20|49=EQUITY-TRADER|52=20140822-06:23:12.194|56=NASDAQ|10=139|8=FIX.4.2|9=63|35=0|34=21|49=EQUITY-TRADER|52=20140822-06:23:42.195|56=NASDAQ|10=144|8=FIX.4.2|9=63|35=0|34=22|49=EQUITY-TRADER|52=20140822-06:24:12.196|56=NASDAQ|10=144|8=FIX.4.2|9=165|35=D|34=23|49=EQUITY-TRADER|52=20140822-06:24:19.669|56=NASDAQ|11=EQUITY-TRADER-1408688659668|21=1|38=123|40=2|44=3569.8501|54=2|55=INFY.BO|60=20140822-06:24:19.668|10=240|8=FIX.4.2|9=63|35=0|34=24|49=EQUITY-TRADER|52=20140822-06:24:50.196|56=NASDAQ|10=148|8=FIX.4.2|9=63|35=0|34=25|49=EQUITY-TRADER|52=20140822-06:25:20.199|56=NASDAQ|10=150|8=FIX.4.2|9=63|35=0|34=26|49=EQUITY-TRADER|52=20140822-06:25:50.580|56=NASDAQ|10=148|8=FIX.4.2|9=63|35=0|34=27|49=EQUITY-TRADER|52=20140822-06:26:20.581|56=NASDAQ|10=148|8=FIX.4.2|9=63|35=0|34=28|49=EQUITY-TRADER|52=20140822-06:26:50.581|56=NASDAQ|10=152|8=FIX.4.2|9=63|35=0|34=29|49=EQUITY-TRADER|52=20140822-06:27:20.582|56=NASDAQ|10=152|8=FIX.4.2|9=63|35=0|34=30|49=EQUITY-TRADER|52=20140822-06:27:50.582|56=NASDAQ|10=147|8=FIX.4.2|9=63|35=0|34=31|49=EQUITY-TRADER|52=20140822-06:28:20.583|56=NASDAQ|10=147|8=FIX.4.2|9=63|35=0|34=32|49=EQUITY-TRADER|52=20140822-06:28:50.584|56=NASDAQ|10=152|8=FIX.4.2|9=63|35=0|34=33|49=EQUITY-TRADER|52=20140822-06:29:21.201|56=NASDAQ|10=138|8=FIX.4.2|9=63|35=0|34=34|49=EQUITY-TRADER|52=20140822-06:29:51.202|56=NASDAQ|10=143|8=FIX.4.2|9=63|35=0|34=35|49=EQUITY-TRADER|52=20140822-06:30:21.202|56=NASDAQ|10=133|8=FIX.4.2|9=63|35=0|34=36|49=EQUITY-TRADER|52=20140822-06:30:51.203|56=NASDAQ|10=138|8=FIX.4.2|9=63|35=0|34=37|49=EQUITY-TRADER|52=20140822-06:31:21.203|56=NASDAQ|10=137|8=FIX.4.2|9=63|35=0|34=38|49=EQUITY-TRADER|52=20140822-06:31:51.204|56=NASDAQ|10=142|8=FIX.4.2|9=63|35=0|34=39|49=EQUITY-TRADER|52=20140822-06:32:21.205|56=NASDAQ|10=142|8=FIX.4.2|9=63|35=0|34=40|49=EQUITY-TRADER|52=20140822-06:32:51.205|56=NASDAQ|10=137|8=FIX.4.2|9=63|35=0|34=41|49=EQUITY-TRADER|52=20140822-06:33:21.205|56=NASDAQ|10=136|8=FIX.4.2|9=63|35=0|34=42|49=EQUITY-TRADER|52=20140822-06:33:51.206|56=NASDAQ|10=141|8=FIX.4.2|9=63|35=0|34=43|49=EQUITY-TRADER|52=20140822-06:34:21.207|56=NASDAQ|10=141|8=FIX.4.2|9=63|35=0|34=44|49=EQUITY-TRADER|52=20140822-06:34:51.207|56=NASDAQ|10=145|8=FIX.4.2|9=63|35=0|34=45|49=EQUITY-TRADER|52=20140822-06:35:21.208|56=NASDAQ|10=145|8=FIX.4.2|9=63|35=0|34=46|49=EQUITY-TRADER|52=20140822-06:35:51.208|56=NASDAQ|10=149|8=FIX.4.2|9=63|35=0|34=47|49=EQUITY-TRADER|52=20140822-06:36:21.208|56=NASDAQ|10=148|8=FIX.4.2|9=63|35=0|34=48|49=EQUITY-TRADER|52=20140822-06:36:51.209|56=NASDAQ|10=153|8=FIX.4.2|9=63|35=0|34=49|49=EQUITY-TRADER|52=20140822-06:37:21.210|56=NASDAQ|10=144|8=FIX.4.2|9=63|35=0|34=50|49=EQUITY-TRADER|52=20140822-06:37:51.211|56=NASDAQ|10=140|8=FIX.4.2|9=63|35=0|34=51|49=EQUITY-TRADER|52=20140822-06:38:21.211|56=NASDAQ|10=139|8=FIX.4.2|9=63|35=0|34=52|49=EQUITY-TRADER|52=20140822-06:38:51.212|56=NASDAQ|10=144|8=FIX.4.2|9=63|35=0|34=53|49=EQUITY-TRADER|52=20140822-06:39:21.212|56=NASDAQ|10=143|8=FIX.4.2|9=155|35=D|34=54|49=EQUITY-TRADER|52=20140822-06:39:33.160|56=NASDAQ|11=EQUITY-TRADER-1408689573159|21=1|38=900|40=2|44=22|54=1|55=NWSA|60=20140822-06:39:33.159|10=178|8=FIX.4.2|9=63|35=0|34=55|49=EQUITY-TRADER|52=20140822-06:40:03.213|56=NASDAQ|10=138|8=FIX.4.2|9=63|35=0|34=56|49=EQUITY-TRADER|52=20140822-06:40:33.214|56=NASDAQ|10=143|8=FIX.4.2|9=63|35=0|34=57|49=EQUITY-TRADER|52=20140822-06:41:03.214|56=NASDAQ|10=142|8=FIX.4.2|9=63|35=0|34=58|49=EQUITY-TRADER|52=20140822-06:41:33.214|56=NASDAQ|10=146|8=FIX.4.2|9=63|35=0|34=59|49=EQUITY-TRADER|52=20140822-06:42:03.215|56=NASDAQ|10=146|8=FIX.4.2|9=63|35=0|34=60|49=EQUITY-TRADER|52=20140822-06:42:33.216|56=NASDAQ|10=142|8=FIX.4.2|9=63|35=0|34=61|49=EQUITY-TRADER|52=20140822-06:43:03.216|56=NASDAQ|10=141|8=FIX.4.2|9=155|35=D|34=62|49=EQUITY-TRADER|52=20140822-06:43:12.135|56=NASDAQ|11=EQUITY-TRADER-1408689792134|21=1|38=100|40=2|44=62|54=1|55=AKAM|60=20140822-06:43:12.134|10=117|8=FIX.4.2|9=63|35=0|34=63|49=EQUITY-TRADER|52=20140822-06:43:42.217|56=NASDAQ|10=147|8=FIX.4.2|9=155|35=D|34=64|49=EQUITY-TRADER|52=20140822-06:44:03.440|56=NASDAQ|11=EQUITY-TRADER-1408689843439|21=1|38=100|40=2|44=62|54=1|55=AKAM|60=20140822-06:44:03.439|10=133|8=FIX.4.2|9=63|35=0|34=65|49=EQUITY-TRADER|52=20140822-06:44:33.601|56=NASDAQ|10=147|8=FIX.4.2|9=155|35=D|34=66|49=EQUITY-TRADER|52=20140822-06:44:41.539|56=NASDAQ|11=EQUITY-TRADER-1408689881538|21=1|38=100|40=2|44=62|54=1|55=AKAM|60=20140822-06:44:41.538|10=150|8=FIX.4.2|9=63|35=0|34=67|49=EQUITY-TRADER|52=20140822-06:45:11.601|56=NASDAQ|10=146|8=FIX.4.2|9=63|35=0|34=68|49=EQUITY-TRADER|52=20140822-06:45:41.601|56=NASDAQ|10=150|8=FIX.4.2|9=63|35=0|34=69|49=EQUITY-TRADER|52=20140822-06:46:11.602|56=NASDAQ|10=150|8=FIX.4.2|9=63|35=0|34=70|49=EQUITY-TRADER|52=20140822-06:46:41.603|56=NASDAQ|10=146|8=FIX.4.2|9=63|35=0|34=71|49=EQUITY-TRADER|52=20140822-06:47:11.604|56=NASDAQ|10=146|8=FIX.4.2|9=63|35=0|34=72|49=EQUITY-TRADER|52=20140822-06:47:42.221|56=NASDAQ|10=146|8=FIX.4.2|9=63|35=0|34=73|49=EQUITY-TRADER|52=20140822-06:48:12.222|56=NASDAQ|10=146|8=FIX.4.2|9=63|35=0|34=74|49=EQUITY-TRADER|52=20140822-06:48:42.222|56=NASDAQ|10=150|8=FIX.4.2|9=63|35=0|34=75|49=EQUITY-TRADER|52=20140822-06:49:12.223|56=NASDAQ|10=150|8=FIX.4.2|9=63|35=0|34=76|49=EQUITY-TRADER|52=20140822-06:49:42.223|56=NASDAQ|10=154|8=FIX.4.2|9=63|35=0|34=77|49=EQUITY-TRADER|52=20140822-06:50:12.224|56=NASDAQ|10=145|8=FIX.4.2|9=63|35=0|34=78|49=EQUITY-TRADER|52=20140822-06:50:42.225|56=NASDAQ|10=150|8=FIX.4.2|9=63|35=0|34=79|49=EQUITY-TRADER|52=20140822-06:51:12.225|56=NASDAQ|10=149|8=FIX.4.2|9=63|35=0|34=80|49=EQUITY-TRADER|52=20140822-06:51:42.225|56=NASDAQ|10=144|8=FIX.4.2|9=63|35=0|34=81|49=EQUITY-TRADER|52=20140822-06:52:12.226|56=NASDAQ|10=144|8=FIX.4.2|9=158|35=D|34=82|49=EQUITY-TRADER|52=20140822-06:52:16.806|56=NASDAQ|11=EQUITY-TRADER-1408690336805|21=1|38=111|40=2|44=35.15|54=1|55=INTC|60=20140822-06:52:16.805|10=045|8=FIX.4.2|9=155|35=D|34=83|49=EQUITY-TRADER|52=20140822-06:52:31.462|56=NASDAQ|11=EQUITY-TRADER-1408690351461|21=1|38=100|40=2|44=62|54=1|55=AKAM|60=20140822-06:52:31.461|10=114|8=FIX.4.2|9=63|35=0|34=84|49=EQUITY-TRADER|52=20140822-06:53:01.610|56=NASDAQ|10=143|8=FIX.4.2|9=63|35=0|34=85|49=EQUITY-TRADER|52=20140822-06:53:31.611|56=NASDAQ|10=148|8=FIX.4.2|9=63|35=0|34=86|49=EQUITY-TRADER|52=20140822-06:54:01.611|56=NASDAQ|10=147|8=FIX.4.2|9=63|35=0|34=87|49=EQUITY-TRADER|52=20140822-06:54:31.611|56=NASDAQ|10=151|8=FIX.4.2|9=63|35=0|34=88|49=EQUITY-TRADER|52=20140822-06:55:01.611|56=NASDAQ|10=150|8=FIX.4.2|9=63|35=0|34=89|49=EQUITY-TRADER|52=20140822-06:55:31.612|56=NASDAQ|10=155|8=FIX.4.2|9=63|35=0|34=90|49=EQUITY-TRADER|52=20140822-06:56:01.613|56=NASDAQ|10=146|8=FIX.4.2|9=63|35=0|34=91|49=EQUITY-TRADER|52=20140822-06:56:31.614|56=NASDAQ|10=151|8=FIX.4.2|9=63|35=0|34=92|49=EQUITY-TRADER|52=20140822-06:57:02.231|56=NASDAQ|10=146|8=FIX.4.2|9=63|35=0|34=93|49=EQUITY-TRADER|52=20140822-06:57:32.232|56=NASDAQ|10=151|8=FIX.4.2|9=63|35=0|34=94|49=EQUITY-TRADER|52=20140822-06:58:02.232|56=NASDAQ|10=150|8=FIX.4.2|9=63|35=0|34=95|49=EQUITY-TRADER|52=20140822-06:58:32.233|56=NASDAQ|10=155|8=FIX.4.2|9=63|35=0|34=96|49=EQUITY-TRADER|52=20140822-06:59:02.233|56=NASDAQ|10=154|8=FIX.4.2|9=63|35=0|34=97|49=EQUITY-TRADER|52=20140822-06:59:32.234|56=NASDAQ|10=159|8=FIX.4.2|9=155|35=D|34=98|49=EQUITY-TRADER|52=20140822-06:59:48.525|56=NASDAQ|11=EQUITY-TRADER-1408690788524|21=1|38=100|40=2|44=62|54=1|55=AKAM|60=20140822-06:59:48.524|10=164|8=FIX.4.2|9=155|35=D|34=99|49=EQUITY-TRADER|52=20140822-06:59:50.250|56=NASDAQ|11=EQUITY-TRADER-1408690790250|21=1|38=900|40=2|44=22|54=1|55=NWSA|60=20140822-06:59:50.250|10=166|8=FIX.4.2|9=160|35=D|34=100|49=EQUITY-TRADER|52=20140822-07:00:04.233|56=NASDAQ|11=EQUITY-TRADER-1408690804233|21=1|38=7676|40=2|44=35.15|54=1|55=INTC|60=20140822-07:00:04.233|10=114|8=FIX.4.2|9=64|35=0|34=101|49=EQUITY-TRADER|52=20140822-07:00:34.236|56=NASDAQ|10=185|8=FIX.4.2|9=64|35=0|34=102|49=EQUITY-TRADER|52=20140822-07:01:04.618|56=NASDAQ|10=188|8=FIX.4.2|9=64|35=0|34=103|49=EQUITY-TRADER|52=20140822-07:01:34.619|56=NASDAQ|10=193|8=FIX.4.2|9=64|35=0|34=104|49=EQUITY-TRADER|52=20140822-07:02:04.620|56=NASDAQ|10=184|8=FIX.4.2|9=64|35=0|34=105|49=EQUITY-TRADER|52=20140822-07:02:35.237|56=NASDAQ|10=193|8=FIX.4.2|9=64|35=0|34=106|49=EQUITY-TRADER|52=20140822-07:03:05.238|56=NASDAQ|10=193|8=FIX.4.2|9=64|35=0|34=107|49=EQUITY-TRADER|52=20140822-07:03:35.238|56=NASDAQ|10=197|8=FIX.4.2|9=64|35=0|34=108|49=EQUITY-TRADER|52=20140822-07:04:05.239|56=NASDAQ|10=197|8=FIX.4.2|9=64|35=0|34=109|49=EQUITY-TRADER|52=20140822-07:04:35.239|56=NASDAQ|10=201|8=FIX.4.2|9=64|35=0|34=110|49=EQUITY-TRADER|52=20140822-07:05:05.240|56=NASDAQ|10=183|8=FIX.4.2|9=64|35=0|34=111|49=EQUITY-TRADER|52=20140822-07:05:35.241|56=NASDAQ|10=188|8=FIX.4.2|9=64|35=0|34=112|49=EQUITY-TRADER|52=20140822-07:06:05.241|56=NASDAQ|10=187|8=FIX.4.2|9=64|35=0|34=113|49=EQUITY-TRADER|52=20140822-07:06:35.241|56=NASDAQ|10=191|8=FIX.4.2|9=64|35=0|34=114|49=EQUITY-TRADER|52=20140822-07:07:05.242|56=NASDAQ|10=191|8=FIX.4.2|9=64|35=0|34=115|49=EQUITY-TRADER|52=20140822-07:07:35.243|56=NASDAQ|10=196|8=FIX.4.2|9=64|35=0|34=116|49=EQUITY-TRADER|52=20140822-07:08:05.243|56=NASDAQ|10=195|8=FIX.4.2|9=64|35=0|34=117|49=EQUITY-TRADER|52=20140822-07:08:35.244|56=NASDAQ|10=200|8=FIX.4.2|9=64|35=0|34=118|49=EQUITY-TRADER|52=20140822-07:09:05.245|56=NASDAQ|10=200|8=FIX.4.2|9=64|35=0|34=119|49=EQUITY-TRADER|52=20140822-07:09:35.627|56=NASDAQ|10=208|8=FIX.4.2|9=64|35=0|34=120|49=EQUITY-TRADER|52=20140822-07:10:06.245|56=NASDAQ|10=186|8=FIX.4.2|9=64|35=0|34=121|49=EQUITY-TRADER|52=20140822-07:10:36.246|56=NASDAQ|10=191|8=FIX.4.2|9=64|35=0|34=122|49=EQUITY-TRADER|52=20140822-07:11:06.247|56=NASDAQ|10=191|8=FIX.4.2|9=64|35=0|34=123|49=EQUITY-TRADER|52=20140822-07:11:36.247|56=NASDAQ|10=195|8=FIX.4.2|9=64|35=0|34=124|49=EQUITY-TRADER|52=20140822-07:12:06.247|56=NASDAQ|10=194|8=FIX.4.2|9=64|35=0|34=125|49=EQUITY-TRADER|52=20140822-07:12:36.248|56=NASDAQ|10=199|8=FIX.4.2|9=64|35=0|34=126|49=EQUITY-TRADER|52=20140822-07:13:06.249|56=NASDAQ|10=199|8=FIX.4.2|9=64|35=0|34=127|49=EQUITY-TRADER|52=20140822-07:13:36.249|56=NASDAQ|10=203|8=FIX.4.2|9=64|35=0|34=128|49=EQUITY-TRADER|52=20140822-07:14:06.250|56=NASDAQ|10=194|8=FIX.4.2|9=64|35=0|34=129|49=EQUITY-TRADER|52=20140822-07:14:36.251|56=NASDAQ|10=199|8=FIX.4.2|9=64|35=0|34=130|49=EQUITY-TRADER|52=20140822-07:15:06.251|56=NASDAQ|10=189|8=FIX.4.2|9=64|35=0|34=131|49=EQUITY-TRADER|52=20140822-07:15:36.251|56=NASDAQ|10=193|8=FIX.4.2|9=64|35=0|34=132|49=EQUITY-TRADER|52=20140822-07:16:06.252|56=NASDAQ|10=193|8=FIX.4.2|9=64|35=0|34=133|49=EQUITY-TRADER|52=20140822-07:16:36.253|56=NASDAQ|10=198|8=FIX.4.2|9=64|35=0|34=134|49=EQUITY-TRADER|52=20140822-07:17:06.253|56=NASDAQ|10=197|8=FIX.4.2|9=64|35=0|34=135|49=EQUITY-TRADER|52=20140822-07:17:36.254|56=NASDAQ|10=202|8=FIX.4.2|9=64|35=0|34=136|49=EQUITY-TRADER|52=20140822-07:18:06.254|56=NASDAQ|10=201|8=FIX.4.2|9=64|35=0|34=137|49=EQUITY-TRADER|52=20140822-07:18:36.254|56=NASDAQ|10=205|8=FIX.4.2|9=64|35=0|34=138|49=EQUITY-TRADER|52=20140822-07:19:06.255|56=NASDAQ|10=205|8=FIX.4.2|9=64|35=0|34=139|49=EQUITY-TRADER|52=20140822-07:19:36.256|56=NASDAQ|10=210|8=FIX.4.2|9=157|35=D|34=140|49=EQUITY-TRADER|52=20140822-07:20:00.128|56=NASDAQ|11=EQUITY-TRADER-1408692000128|21=1|38=1000|40=2|44=70|54=1|55=ADBE|60=20140822-07:20:00.128|10=167|8=FIX.4.2|9=64|35=0|34=141|49=EQUITY-TRADER|52=20140822-07:20:30.257|56=NASDAQ|10=190|8=FIX.4.2|9=64|35=0|34=142|49=EQUITY-TRADER|52=20140822-07:21:00.258|56=NASDAQ|10=190|8=FIX.4.2|9=64|35=0|34=143|49=EQUITY-TRADER|52=20140822-07:21:30.640|56=NASDAQ|10=189|8=FIX.4.2|9=64|35=0|34=144|49=EQUITY-TRADER|52=20140822-07:22:00.640|56=NASDAQ|10=188|8=FIX.4.2|9=64|35=0|34=145|49=EQUITY-TRADER|52=20140822-07:22:30.642|56=NASDAQ|10=194|8=FIX.4.2|9=64|35=0|34=146|49=EQUITY-TRADER|52=20140822-07:23:00.644|56=NASDAQ|10=195|8=FIX.4.2|9=64|35=0|34=147|49=EQUITY-TRADER|52=20140822-07:23:31.260|56=NASDAQ|10=194|8=FIX.4.2|9=64|35=0|34=148|49=EQUITY-TRADER|52=20140822-07:24:01.261|56=NASDAQ|10=194|8=FIX.4.2|9=64|35=0|34=149|49=EQUITY-TRADER|52=20140822-07:24:31.261|56=NASDAQ|10=198|8=FIX.4.2|9=64|35=0|34=150|49=EQUITY-TRADER|52=20140822-07:25:01.261|56=NASDAQ|10=188|8=FIX.4.2|9=64|35=0|34=151|49=EQUITY-TRADER|52=20140822-07:25:31.262|56=NASDAQ|10=193|8=FIX.4.2|9=64|35=0|34=152|49=EQUITY-TRADER|52=20140822-07:26:01.263|56=NASDAQ|10=193|8=FIX.4.2|9=154|35=D|34=153|49=EQUITY-TRADER|52=20140822-07:26:28.776|56=NASDAQ|11=EQUITY-TRADER-1408692388775|21=1|38=1|40=2|44=70|54=1|55=ADBE|60=20140822-07:26:28.775|10=100|8=FIX.4.2|9=64|35=0|34=154|49=EQUITY-TRADER|52=20140822-07:26:59.263|56=NASDAQ|10=208|8=FIX.4.2|9=64|35=0|34=155|49=EQUITY-TRADER|52=20140822-07:27:29.265|56=NASDAQ|10=209|8=FIX.4.2|9=64|35=0|34=156|49=EQUITY-TRADER|52=20140822-07:27:59.265|56=NASDAQ|10=213|8=FIX.4.2|9=64|35=0|34=157|49=EQUITY-TRADER|52=20140822-07:28:29.265|56=NASDAQ|10=212|8=FIX.4.2|9=64|35=0|34=158|49=EQUITY-TRADER|52=20140822-07:28:59.266|56=NASDAQ|10=217|8=FIX.4.2|9=64|35=0|34=159|49=EQUITY-TRADER|52=20140822-07:29:29.267|56=NASDAQ|10=217|8=FIX.4.2|9=64|35=0|34=160|49=EQUITY-TRADER|52=20140822-07:30:00.267|56=NASDAQ|10=190|8=FIX.4.2|9=64|35=0|34=161|49=EQUITY-TRADER|52=20140822-07:30:30.267|56=NASDAQ|10=194|8=FIX.4.2|9=64|35=0|34=162|49=EQUITY-TRADER|52=20140822-07:31:00.268|56=NASDAQ|10=194|8=FIX.4.2|9=64|35=0|34=163|49=EQUITY-TRADER|52=20140822-07:31:30.269|56=NASDAQ|10=199|8=FIX.4.2|9=64|35=0|34=164|49=EQUITY-TRADER|52=20140822-07:32:00.269|56=NASDAQ|10=198|8=FIX.4.2|9=64|35=0|34=165|49=EQUITY-TRADER|52=20140822-07:32:30.270|56=NASDAQ|10=194|8=FIX.4.2|9=64|35=0|34=166|49=EQUITY-TRADER|52=20140822-07:33:00.270|56=NASDAQ|10=193|8=FIX.4.2|9=64|35=0|34=167|49=EQUITY-TRADER|52=20140822-07:33:30.271|56=NASDAQ|10=198|8=FIX.4.2|9=64|35=0|34=168|49=EQUITY-TRADER|52=20140822-07:34:00.271|56=NASDAQ|10=197|8=FIX.4.2|9=64|35=0|34=169|49=EQUITY-TRADER|52=20140822-07:34:30.272|56=NASDAQ|10=202|8=FIX.4.2|9=64|35=0|34=170|49=EQUITY-TRADER|52=20140822-07:35:00.273|56=NASDAQ|10=193|8=FIX.4.2|9=64|35=0|34=171|49=EQUITY-TRADER|52=20140822-07:35:31.272|56=NASDAQ|10=197|8=FIX.4.2|9=64|35=0|34=172|49=EQUITY-TRADER|52=20140822-07:36:01.273|56=NASDAQ|10=197|8=FIX.4.2|9=64|35=0|34=173|49=EQUITY-TRADER|52=20140822-07:36:31.274|56=NASDAQ|10=202|8=FIX.4.2|9=64|35=0|34=174|49=EQUITY-TRADER|52=20140822-07:37:01.275|56=NASDAQ|10=202|8=FIX.4.2|9=64|35=0|34=175|49=EQUITY-TRADER|52=20140822-07:37:31.275|56=NASDAQ|10=206|8=FIX.4.2|9=64|35=0|34=176|49=EQUITY-TRADER|52=20140822-07:38:01.276|56=NASDAQ|10=206|8=FIX.4.2|9=64|35=0|34=177|49=EQUITY-TRADER|52=20140822-07:38:31.276|56=NASDAQ|10=210|8=FIX.4.2|9=64|35=0|34=178|49=EQUITY-TRADER|52=20140822-07:39:01.276|56=NASDAQ|10=209|8=FIX.4.2|9=64|35=0|34=179|49=EQUITY-TRADER|52=20140822-07:39:31.277|56=NASDAQ|10=214|8=FIX.4.2|9=64|35=0|34=180|49=EQUITY-TRADER|52=20140822-07:40:01.278|56=NASDAQ|10=196|8=FIX.4.2|9=64|35=0|34=181|49=EQUITY-TRADER|52=20140822-07:40:31.279|56=NASDAQ|10=201|8=FIX.4.2|9=64|35=0|34=182|49=EQUITY-TRADER|52=20140822-07:41:01.279|56=NASDAQ|10=200|8=FIX.4.2|9=64|35=0|34=183|49=EQUITY-TRADER|52=20140822-07:41:31.279|56=NASDAQ|10=204|8=FIX.4.2|9=64|35=0|34=184|49=EQUITY-TRADER|52=20140822-07:42:01.280|56=NASDAQ|10=195|8=FIX.4.2|9=64|35=0|34=185|49=EQUITY-TRADER|52=20140822-07:42:31.280|56=NASDAQ|10=199|8=FIX.4.2|9=64|35=0|34=186|49=EQUITY-TRADER|52=20140822-07:43:01.281|56=NASDAQ|10=199|8=FIX.4.2|9=64|35=0|34=187|49=EQUITY-TRADER|52=20140822-07:43:31.282|56=NASDAQ|10=204|8=FIX.4.2|9=64|35=0|34=188|49=EQUITY-TRADER|52=20140822-07:44:01.283|56=NASDAQ|10=204|8=FIX.4.2|9=64|35=0|34=189|49=EQUITY-TRADER|52=20140822-07:44:32.282|56=NASDAQ|10=208|8=FIX.4.2|9=64|35=0|34=190|49=EQUITY-TRADER|52=20140822-07:45:02.283|56=NASDAQ|10=199|8=FIX.4.2|9=64|35=0|34=191|49=EQUITY-TRADER|52=20140822-07:45:32.284|56=NASDAQ|10=204|8=FIX.4.2|9=64|35=0|34=192|49=EQUITY-TRADER|52=20140822-07:46:02.285|56=NASDAQ|10=204|8=FIX.4.2|9=64|35=0|34=193|49=EQUITY-TRADER|52=20140822-07:46:32.285|56=NASDAQ|10=208|8=FIX.4.2|9=64|35=0|34=194|49=EQUITY-TRADER|52=20140822-07:47:02.285|56=NASDAQ|10=207|8=FIX.4.2|9=64|35=0|34=195|49=EQUITY-TRADER|52=20140822-07:47:32.286|56=NASDAQ|10=212|8=FIX.4.2|9=64|35=0|34=196|49=EQUITY-TRADER|52=20140822-07:48:02.286|56=NASDAQ|10=211|8=FIX.4.2|9=64|35=0|34=197|49=EQUITY-TRADER|52=20140822-07:48:32.287|56=NASDAQ|10=216|8=FIX.4.2|9=64|35=0|34=198|49=EQUITY-TRADER|52=20140822-07:49:02.288|56=NASDAQ|10=216|8=FIX.4.2|9=64|35=0|34=199|49=EQUITY-TRADER|52=20140822-07:49:32.289|56=NASDAQ|10=221|8=FIX.4.2|9=64|35=0|34=200|49=EQUITY-TRADER|52=20140822-07:50:03.288|56=NASDAQ|10=193|8=FIX.4.2|9=64|35=0|34=201|49=EQUITY-TRADER|52=20140822-07:50:33.289|56=NASDAQ|10=198|8=FIX.4.2|9=64|35=0|34=202|49=EQUITY-TRADER|52=20140822-07:51:03.290|56=NASDAQ|10=189|8=FIX.4.2|9=64|35=0|34=203|49=EQUITY-TRADER|52=20140822-07:51:33.290|56=NASDAQ|10=193|8=FIX.4.2|9=64|35=0|34=204|49=EQUITY-TRADER|52=20140822-07:52:03.291|56=NASDAQ|10=193|8=FIX.4.2|9=64|35=0|34=205|49=EQUITY-TRADER|52=20140822-07:52:33.291|56=NASDAQ|10=197|8=FIX.4.2|9=64|35=0|34=206|49=EQUITY-TRADER|52=20140822-07:53:03.292|56=NASDAQ|10=197|8=FIX.4.2|9=64|35=0|34=207|49=EQUITY-TRADER|52=20140822-07:53:33.292|56=NASDAQ|10=201|8=FIX.4.2|9=64|35=0|34=208|49=EQUITY-TRADER|52=20140822-07:54:03.293|56=NASDAQ|10=201|8=FIX.4.2|9=64|35=0|34=209|49=EQUITY-TRADER|52=20140822-07:54:33.294|56=NASDAQ|10=206|8=FIX.4.2|9=64|35=0|34=210|49=EQUITY-TRADER|52=20140822-07:55:03.295|56=NASDAQ|10=197|8=FIX.4.2|9=64|35=0|34=211|49=EQUITY-TRADER|52=20140822-07:55:33.295|56=NASDAQ|10=201|8=FIX.4.2|9=64|35=0|34=212|49=EQUITY-TRADER|52=20140822-07:56:03.295|56=NASDAQ|10=200|8=FIX.4.2|9=64|35=0|34=213|49=EQUITY-TRADER|52=20140822-07:56:33.297|56=NASDAQ|10=206|8=FIX.4.2|9=64|35=0|34=214|49=EQUITY-TRADER|52=20140822-07:57:04.296|56=NASDAQ|10=205|8=FIX.4.2|9=64|35=0|34=215|49=EQUITY-TRADER|52=20140822-07:57:34.297|56=NASDAQ|10=210|8=FIX.4.2|9=64|35=0|34=216|49=EQUITY-TRADER|52=20140822-07:58:04.298|56=NASDAQ|10=210|8=FIX.4.2|9=156|35=D|34=217|49=EQUITY-TRADER|52=20140822-07:58:22.310|56=NASDAQ|11=EQUITY-TRADER-1408694302310|21=1|38=100|40=2|44=62|54=1|55=AKAM|60=20140822-07:58:22.310|10=154|8=FIX.4.2|9=161|35=D|34=218|49=EQUITY-TRADER|52=20140822-07:58:23.540|56=NASDAQ|11=EQUITY-TRADER-1408694303540|21=1|38=90000|40=2|44=98.18|54=2|55=ORLY|60=20140822-07:58:23.540|10=222|8=FIX.4.2|9=64|35=0|34=219|49=EQUITY-TRADER|52=20140822-07:58:53.681|56=NASDAQ|10=213|8=FIX.4.2|9=64|35=0|34=220|49=EQUITY-TRADER|52=20140822-07:59:23.681|56=NASDAQ|10=203|8=FIX.4.2|9=64|35=0|34=221|49=EQUITY-TRADER|52=20140822-07:59:54.299|56=NASDAQ|10=213|8=FIX.4.2|9=64|35=0|34=222|49=EQUITY-TRADER|52=20140822-08:00:24.300|56=NASDAQ|10=181|8=FIX.4.2|9=64|35=0|34=223|49=EQUITY-TRADER|52=20140822-08:00:54.301|56=NASDAQ|10=186|8=FIX.4.2|9=64|35=0|34=224|49=EQUITY-TRADER|52=20140822-08:01:24.301|56=NASDAQ|10=185|8=FIX.4.2|9=64|35=0|34=225|49=EQUITY-TRADER|52=20140822-08:01:54.302|56=NASDAQ|10=190|8=FIX.4.2|9=64|35=0|34=226|49=EQUITY-TRADER|52=20140822-08:02:24.302|56=NASDAQ|10=189|8=FIX.4.2|9=64|35=0|34=227|49=EQUITY-TRADER|52=20140822-08:02:54.302|56=NASDAQ|10=193|8=FIX.4.2|9=64|35=0|34=228|49=EQUITY-TRADER|52=20140822-08:03:24.304|56=NASDAQ|10=194|8=FIX.4.2|9=64|35=0|34=229|49=EQUITY-TRADER|52=20140822-08:03:54.304|56=NASDAQ|10=198|8=FIX.4.2|9=64|35=0|34=230|49=EQUITY-TRADER|52=20140822-08:04:24.305|56=NASDAQ|10=189|8=FIX.4.2|9=64|35=0|34=231|49=EQUITY-TRADER|52=20140822-08:04:54.687|56=NASDAQ|10=206|8=FIX.4.2|9=64|35=0|34=232|49=EQUITY-TRADER|52=20140822-08:05:24.688|56=NASDAQ|10=206|8=FIX.4.2|9=64|35=0|34=233|49=EQUITY-TRADER|52=20140822-08:05:54.688|56=NASDAQ|10=210|8=FIX.4.2|9=64|35=0|34=234|49=EQUITY-TRADER|52=20140822-08:06:25.307|56=NASDAQ|10=198|8=FIX.4.2|9=64|35=0|34=235|49=EQUITY-TRADER|52=20140822-08:06:55.307|56=NASDAQ|10=202|8=FIX.4.2|9=64|35=0|34=236|49=EQUITY-TRADER|52=20140822-08:07:25.308|56=NASDAQ|10=202|8=FIX.4.2|9=64|35=0|34=237|49=EQUITY-TRADER|52=20140822-08:07:55.308|56=NASDAQ|10=206|8=FIX.4.2|9=64|35=0|34=238|49=EQUITY-TRADER|52=20140822-08:08:25.308|56=NASDAQ|10=205|8=FIX.4.2|9=64|35=0|34=239|49=EQUITY-TRADER|52=20140822-08:08:55.309|56=NASDAQ|10=210|8=FIX.4.2|9=64|35=0|34=240|49=EQUITY-TRADER|52=20140822-08:09:25.310|56=NASDAQ|10=192|8=FIX.4.2|9=64|35=0|34=241|49=EQUITY-TRADER|52=20140822-08:09:55.311|56=NASDAQ|10=197|8=FIX.4.2|9=64|35=0|34=242|49=EQUITY-TRADER|52=20140822-08:10:25.311|56=NASDAQ|10=187|8=FIX.4.2|9=64|35=0|34=243|49=EQUITY-TRADER|52=20140822-08:10:55.311|56=NASDAQ|10=191|8=FIX.4.2|9=64|35=0|34=244|49=EQUITY-TRADER|52=20140822-08:11:25.312|56=NASDAQ|10=191|8=FIX.4.2|9=64|35=0|34=245|49=EQUITY-TRADER|52=20140822-08:11:55.313|56=NASDAQ|10=196|8=FIX.4.2|9=64|35=0|34=246|49=EQUITY-TRADER|52=20140822-08:12:25.313|56=NASDAQ|10=195|8=FIX.4.2|9=64|35=0|34=247|49=EQUITY-TRADER|52=20140822-08:12:55.314|56=NASDAQ|10=200|8=FIX.4.2|9=64|35=0|34=248|49=EQUITY-TRADER|52=20140822-08:13:25.315|56=NASDAQ|10=200|8=FIX.4.2|9=156|35=D|34=249|49=EQUITY-TRADER|52=20140822-08:13:53.701|56=NASDAQ|11=EQUITY-TRADER-1408695233701|21=1|38=100|40=2|44=65|54=1|55=PCAR|60=20140822-08:13:53.701|10=182|8=FIX.4.2|9=161|35=D|34=250|49=EQUITY-TRADER|52=20140822-08:13:55.380|56=NASDAQ|11=EQUITY-TRADER-1408695235380|21=1|38=90000|40=2|44=98.18|54=2|55=ORLY|60=20140822-08:13:55.380|10=223|8=FIX.4.2|9=64|35=0|34=251|49=EQUITY-TRADER|52=20140822-08:14:25.698|56=NASDAQ|10=209|8=FIX.4.2|9=156|35=D|34=252|49=EQUITY-TRADER|52=20140822-08:14:43.339|56=NASDAQ|11=EQUITY-TRADER-1408695283339|21=1|38=100|40=2|44=65|54=1|55=PCAR|60=20140822-08:14:43.339|10=202|8=FIX.4.2|9=64|35=0|34=253|49=EQUITY-TRADER|52=20140822-08:15:13.699|56=NASDAQ|10=210|8=FIX.4.2|9=64|35=0|34=254|49=EQUITY-TRADER|52=20140822-08:15:43.699|56=NASDAQ|10=214|8=FIX.4.2|9=159|35=D|34=255|49=EQUITY-TRADER|52=20140822-08:16:06.786|56=NASDAQ|11=EQUITY-TRADER-1408695366786|21=1|38=100|40=2|44=68.21|54=1|55=PCAR|60=20140822-08:16:06.786|10=122|8=FIX.4.2|9=162|35=D|34=256|49=EQUITY-TRADER|52=20140822-08:16:08.544|56=NASDAQ|11=EQUITY-TRADER-1408695368544|21=1|38=90000|40=2|44=120.19|54=2|55=ORLY|60=20140822-08:16:08.544|10=024|8=FIX.4.2|9=64|35=0|34=257|49=EQUITY-TRADER|52=20140822-08:16:38.701|56=NASDAQ|10=206|8=FIX.4.2|9=64|35=0|34=258|49=EQUITY-TRADER|52=20140822-08:17:09.318|56=NASDAQ|10=210|8=FIX.4.2|9=64|35=0|34=259|49=EQUITY-TRADER|52=20140822-08:17:39.319|56=NASDAQ|10=215|8=FIX.4.2|9=64|35=0|34=260|49=EQUITY-TRADER|52=20140822-08:18:09.319|56=NASDAQ|10=205|8=FIX.4.2|9=64|35=0|34=261|49=EQUITY-TRADER|52=20140822-08:18:39.319|56=NASDAQ|10=209|8=FIX.4.2|9=64|35=0|34=262|49=EQUITY-TRADER|52=20140822-08:19:09.320|56=NASDAQ|10=200|8=FIX.4.2|9=64|35=0|34=263|49=EQUITY-TRADER|52=20140822-08:19:39.321|56=NASDAQ|10=205|8=FIX.4.2|9=158|35=D|34=264|49=EQUITY-TRADER|52=20140822-08:19:53.800|56=NASDAQ|11=EQUITY-TRADER-1408695593800|21=1|38=100|40=2|44=66.8|54=1|55=PCAR|60=20140822-08:19:53.800|10=049|8=FIX.4.2|9=162|35=D|34=265|49=EQUITY-TRADER|52=20140822-08:19:55.341|56=NASDAQ|11=EQUITY-TRADER-1408695595341|21=1|38=90000|40=2|44=146.04|54=2|55=ORLY|60=20140822-08:19:55.341|10=023|8=FIX.4.2|9=158|35=D|34=266|49=EQUITY-TRADER|52=20140822-08:20:20.475|56=NASDAQ|11=EQUITY-TRADER-1408695620475|21=1|38=100|40=2|44=66.8|54=1|55=PCAR|60=20140822-08:20:20.475|10=038|8=FIX.4.2|9=64|35=0|34=267|49=EQUITY-TRADER|52=20140822-08:20:50.703|56=NASDAQ|10=198|8=FIX.4.2|9=64|35=0|34=268|49=EQUITY-TRADER|52=20140822-08:21:20.705|56=NASDAQ|10=199|8=FIX.4.2|9=64|35=0|34=269|49=EQUITY-TRADER|52=20140822-08:21:51.323|56=NASDAQ|10=200|8=FIX.4.2|9=64|35=0|34=270|49=EQUITY-TRADER|52=20140822-08:22:21.324|56=NASDAQ|10=191|8=FIX.4.2|9=64|35=0|34=271|49=EQUITY-TRADER|52=20140822-08:22:51.324|56=NASDAQ|10=195|8=FIX.4.2|9=64|35=0|34=272|49=EQUITY-TRADER|52=20140822-08:23:21.325|56=NASDAQ|10=195|8=FIX.4.2|9=64|35=0|34=273|49=EQUITY-TRADER|52=20140822-08:23:51.325|56=NASDAQ|10=199|8=FIX.4.2|9=64|35=0|34=274|49=EQUITY-TRADER|52=20140822-08:24:21.326|56=NASDAQ|10=199|8=FIX.4.2|9=64|35=0|34=275|49=EQUITY-TRADER|52=20140822-08:24:51.328|56=NASDAQ|10=205|8=FIX.4.2|9=64|35=0|34=276|49=EQUITY-TRADER|52=20140822-08:25:21.710|56=NASDAQ|10=199|8=FIX.4.2|9=64|35=0|34=277|49=EQUITY-TRADER|52=20140822-08:25:51.710|56=NASDAQ|10=203|8=FIX.4.2|9=64|35=0|34=278|49=EQUITY-TRADER|52=20140822-08:26:21.711|56=NASDAQ|10=203|8=FIX.4.2|9=64|35=0|34=279|49=EQUITY-TRADER|52=20140822-08:26:51.712|56=NASDAQ|10=208|8=FIX.4.2|9=64|35=0|34=280|49=EQUITY-TRADER|52=20140822-08:27:22.329|56=NASDAQ|10=203|8=FIX.4.2|9=64|35=0|34=281|49=EQUITY-TRADER|52=20140822-08:27:52.330|56=NASDAQ|10=199|8=FIX.4.2|9=64|35=0|34=282|49=EQUITY-TRADER|52=20140822-08:28:22.330|56=NASDAQ|10=198|8=FIX.4.2|9=64|35=0|34=283|49=EQUITY-TRADER|52=20140822-08:28:52.331|56=NASDAQ|10=203|8=FIX.4.2|9=64|35=0|34=284|49=EQUITY-TRADER|52=20140822-08:29:22.331|56=NASDAQ|10=202|8=FIX.4.2|9=64|35=0|34=285|49=EQUITY-TRADER|52=20140822-08:29:52.332|56=NASDAQ|10=207|8=FIX.4.2|9=64|35=0|34=286|49=EQUITY-TRADER|52=20140822-08:30:22.333|56=NASDAQ|10=198|8=FIX.4.2|9=64|35=0|34=287|49=EQUITY-TRADER|52=20140822-08:30:52.715|56=NASDAQ|10=206|8=FIX.4.2|9=64|35=0|34=288|49=EQUITY-TRADER|52=20140822-08:31:22.716|56=NASDAQ|10=206|8=FIX.4.2|9=64|35=0|34=289|49=EQUITY-TRADER|52=20140822-08:31:52.716|56=NASDAQ|10=210|8=FIX.4.2|9=64|35=0|34=290|49=EQUITY-TRADER|52=20140822-08:32:22.717|56=NASDAQ|10=201|8=FIX.4.2|9=64|35=0|34=291|49=EQUITY-TRADER|52=20140822-08:32:52.717|56=NASDAQ|10=205|8=FIX.4.2|9=64|35=0|34=292|49=EQUITY-TRADER|52=20140822-08:33:22.717|56=NASDAQ|10=204|8=FIX.4.2|9=64|35=0|34=293|49=EQUITY-TRADER|52=20140822-08:33:52.719|56=NASDAQ|10=210|8=FIX.4.2|9=64|35=0|34=294|49=EQUITY-TRADER|52=20140822-08:34:22.719|56=NASDAQ|10=209|8=FIX.4.2|9=64|35=0|34=295|49=EQUITY-TRADER|52=20140822-08:34:52.720|56=NASDAQ|10=205|8=FIX.4.2|9=64|35=0|34=296|49=EQUITY-TRADER|52=20140822-08:35:23.338|56=NASDAQ|10=210|8=FIX.4.2|9=64|35=0|34=297|49=EQUITY-TRADER|52=20140822-08:35:53.339|56=NASDAQ|10=215|8=FIX.4.2|9=64|35=0|34=298|49=EQUITY-TRADER|52=20140822-08:36:23.339|56=NASDAQ|10=214|8=FIX.4.2|9=64|35=0|34=299|49=EQUITY-TRADER|52=20140822-08:36:53.339|56=NASDAQ|10=218|8=FIX.4.2|9=64|35=0|34=300|49=EQUITY-TRADER|52=20140822-08:37:23.340|56=NASDAQ|10=191|8=FIX.4.2|9=64|35=0|34=301|49=EQUITY-TRADER|52=20140822-08:37:53.340|56=NASDAQ|10=195|8=FIX.4.2|9=64|35=0|34=302|49=EQUITY-TRADER|52=20140822-08:38:23.341|56=NASDAQ|10=195|8=FIX.4.2|9=64|35=0|34=303|49=EQUITY-TRADER|52=20140822-08:38:53.341|56=NASDAQ|10=199|8=FIX.4.2|9=64|35=0|34=304|49=EQUITY-TRADER|52=20140822-08:39:23.342|56=NASDAQ|10=199|8=FIX.4.2|9=64|35=0|34=305|49=EQUITY-TRADER|52=20140822-08:39:53.342|56=NASDAQ|10=203|8=FIX.4.2|9=64|35=0|34=306|49=EQUITY-TRADER|52=20140822-08:40:23.343|56=NASDAQ|10=194|8=FIX.4.2|9=64|35=0|34=307|49=EQUITY-TRADER|52=20140822-08:40:53.349|56=NASDAQ|10=204|8=FIX.4.2|9=64|35=0|34=308|49=EQUITY-TRADER|52=20140822-08:41:24.345|56=NASDAQ|10=200|8=FIX.4.2|9=64|35=0|34=309|49=EQUITY-TRADER|52=20140822-08:41:54.345|56=NASDAQ|10=204|8=FIX.4.2|9=64|35=0|34=310|49=EQUITY-TRADER|52=20140822-08:42:24.345|56=NASDAQ|10=194|8=FIX.4.2|9=64|35=0|34=311|49=EQUITY-TRADER|52=20140822-08:42:54.346|56=NASDAQ|10=199|8=FIX.4.2|9=64|35=0|34=312|49=EQUITY-TRADER|52=20140822-08:43:24.346|56=NASDAQ|10=198|8=FIX.4.2|9=64|35=0|34=313|49=EQUITY-TRADER|52=20140822-08:43:54.347|56=NASDAQ|10=203|8=FIX.4.2|9=64|35=0|34=314|49=EQUITY-TRADER|52=20140822-08:44:24.348|56=NASDAQ|10=203|8=FIX.4.2|9=64|35=0|34=315|49=EQUITY-TRADER|52=20140822-08:44:54.349|56=NASDAQ|10=208|8=FIX.4.2|9=64|35=0|34=316|49=EQUITY-TRADER|52=20140822-08:45:25.349|56=NASDAQ|10=208|8=FIX.4.2|9=64|35=0|34=317|49=EQUITY-TRADER|52=20140822-08:45:55.349|56=NASDAQ|10=212|8=FIX.4.2|9=64|35=0|34=318|49=EQUITY-TRADER|52=20140822-08:46:25.351|56=NASDAQ|10=204|8=FIX.4.2|9=64|35=0|34=319|49=EQUITY-TRADER|52=20140822-08:46:55.351|56=NASDAQ|10=208|8=FIX.4.2|9=64|35=0|34=320|49=EQUITY-TRADER|52=20140822-08:47:25.351|56=NASDAQ|10=198|8=FIX.4.2|9=64|35=0|34=321|49=EQUITY-TRADER|52=20140822-08:47:55.351|56=NASDAQ|10=202|8=FIX.4.2|9=64|35=0|34=322|49=EQUITY-TRADER|52=20140822-08:48:25.355|56=NASDAQ|10=205|8=FIX.4.2|9=64|35=0|34=323|49=EQUITY-TRADER|52=20140822-08:48:56.352|56=NASDAQ|10=207|8=FIX.4.2|9=64|35=0|34=324|49=EQUITY-TRADER|52=20140822-08:49:26.353|56=NASDAQ|10=207|8=FIX.4.2|9=64|35=0|34=325|49=EQUITY-TRADER|52=20140822-08:49:56.354|56=NASDAQ|10=212|8=FIX.4.2|9=64|35=0|34=326|49=EQUITY-TRADER|52=20140822-08:50:26.355|56=NASDAQ|10=203|8=FIX.4.2|9=64|35=0|34=327|49=EQUITY-TRADER|52=20140822-08:50:57.354|56=NASDAQ|10=207|8=FIX.4.2|9=64|35=0|34=328|49=EQUITY-TRADER|52=20140822-08:51:27.355|56=NASDAQ|10=207|8=FIX.4.2|9=64|35=0|34=329|49=EQUITY-TRADER|52=20140822-08:51:57.356|56=NASDAQ|10=212|8=FIX.4.2|9=64|35=0|34=330|49=EQUITY-TRADER|52=20140822-08:52:27.356|56=NASDAQ|10=202|8=FIX.4.2|9=64|35=0|34=331|49=EQUITY-TRADER|52=20140822-08:52:57.357|56=NASDAQ|10=207|8=FIX.4.2|9=64|35=0|34=332|49=EQUITY-TRADER|52=20140822-08:53:27.358|56=NASDAQ|10=207|8=FIX.4.2|9=64|35=0|34=333|49=EQUITY-TRADER|52=20140822-08:53:57.358|56=NASDAQ|10=211|8=FIX.4.2|9=64|35=0|34=334|49=EQUITY-TRADER|52=20140822-08:54:27.358|56=NASDAQ|10=210|8=FIX.4.2|9=64|35=0|34=335|49=EQUITY-TRADER|52=20140822-08:54:57.359|56=NASDAQ|10=215|8=FIX.4.2|9=64|35=0|34=336|49=EQUITY-TRADER|52=20140822-08:55:27.360|56=NASDAQ|10=206|8=FIX.4.2|9=64|35=0|34=337|49=EQUITY-TRADER|52=20140822-08:55:57.361|56=NASDAQ|10=211|8=FIX.4.2|9=64|35=0|34=338|49=EQUITY-TRADER|52=20140822-08:56:28.360|56=NASDAQ|10=210|8=FIX.4.2|9=64|35=0|34=339|49=EQUITY-TRADER|52=20140822-08:56:58.361|56=NASDAQ|10=215|8=FIX.4.2|9=64|35=0|34=340|49=EQUITY-TRADER|52=20140822-08:57:28.362|56=NASDAQ|10=206|8=FIX.4.2|9=64|35=0|34=341|49=EQUITY-TRADER|52=20140822-08:57:58.362|56=NASDAQ|10=210|8=FIX.4.2|9=64|35=0|34=342|49=EQUITY-TRADER|52=20140822-08:58:28.363|56=NASDAQ|10=210|8=FIX.4.2|9=64|35=0|34=343|49=EQUITY-TRADER|52=20140822-08:58:58.364|56=NASDAQ|10=215|8=FIX.4.2|9=64|35=0|34=344|49=EQUITY-TRADER|52=20140822-08:59:28.364|56=NASDAQ|10=214|8=FIX.4.2|9=64|35=0|34=345|49=EQUITY-TRADER|52=20140822-08:59:58.364|56=NASDAQ|10=218|8=FIX.4.2|9=64|35=0|34=346|49=EQUITY-TRADER|52=20140822-09:00:28.365|56=NASDAQ|10=204|8=FIX.4.2|9=64|35=0|34=347|49=EQUITY-TRADER|52=20140822-09:00:58.366|56=NASDAQ|10=209|8=FIX.4.2|9=64|35=0|34=348|49=EQUITY-TRADER|52=20140822-09:01:28.366|56=NASDAQ|10=208|8=FIX.4.2|9=64|35=0|34=349|49=EQUITY-TRADER|52=20140822-09:01:58.367|56=NASDAQ|10=213|8=FIX.4.2|9=64|35=0|34=350|49=EQUITY-TRADER|52=20140822-09:02:28.367|56=NASDAQ|10=203|8=FIX.4.2|9=64|35=0|34=351|49=EQUITY-TRADER|52=20140822-09:02:58.368|56=NASDAQ|10=208|8=FIX.4.2|9=64|35=0|34=352|49=EQUITY-TRADER|52=20140822-09:03:28.368|56=NASDAQ|10=207|8=FIX.4.2|9=64|35=0|34=353|49=EQUITY-TRADER|52=20140822-09:03:58.369|56=NASDAQ|10=212|8=FIX.4.2|9=64|35=0|34=354|49=EQUITY-TRADER|52=20140822-09:04:28.370|56=NASDAQ|10=203|8=FIX.4.2|9=64|35=0|34=355|49=EQUITY-TRADER|52=20140822-09:04:58.370|56=NASDAQ|10=207|8=FIX.4.2|9=64|35=0|34=356|49=EQUITY-TRADER|52=20140822-09:05:28.370|56=NASDAQ|10=206|