8=FIX.4.2|9=156|35=D|34=1|49=EQUITY-TRADER|52=20141007-01:01:05.047|56=NASDAQ|11=EQUITY-TRADER-1412643664473|21=1|38=12|40=2|44=33.01|54=1|55=ALTR|60=20141007-01:01:04.525|10=151|